:100000000C945D000C9485000C9485000C94850084
:100010000C9485000C9485000C9485000C9485004C
:100020000C9485000C9485000C9485000C9485003C
:100030000C9485000C9485000C9485000C9485002C
:100040000C94DF050C9485000C94AD050C94870589
:100050000C9485000C9485000C9485000C9485000C
:100060000C9485000C94850000000008000201003B
:100070000003040700000000000000000000000072
:10008000250028002B0000000000240027002A0083
:10009000040404040404040402020202020203032E
:1000A0000303030301020408102040800102040836
:1000B0001020010204081020290611241FBECFEFD2
:1000C000D8E0DEBFCDBF11E0A0E0B1E0E8EDFAE19D
:1000D00002C005900D92A434B107D9F722E0A4E440
:1000E000B1E001C01D92A537B207E1F710E0CDE500
:1000F000D0E004C02197FE010E94420DCC35D1070B
:10010000C9F70E94D2060C946A0D0C94000090E08E
:10011000FC01EC55FF4F249180579F4FFC018491C7
:10012000882399F090E0880F991FFC01EA57FF4F50
:10013000A591B491FC01E458FF4F859194918FB73C
:10014000F894EC91E22BEC938FBF08950F931F93DB
:10015000CF93DF93C0914002E1E4F2E0CD3211F0A1
:10016000E0E4F2E08F0120E030E0A901D801DD9168
:100170008D0180ED8D0F8A3090F4AAE0B0E00E94EE
:10018000480D2D2FDD0F330B440B550B260F371F5A
:10019000481F591F2053310941095109E7CFA4E6EF
:1001A000B0E00E94480DAB01BC01DF01819190EDF0
:1001B000980F9A30D0F38E3259F511968C91119791
:1001C00090ED980F9A3020F5082E000C990BC097EF
:1001D0002AE0289F8001299F100D1124012E000C78
:1001E000220B330B400F511F621F731F12968C910D
:1001F00090ED980F9A3060F4082E000C990BC09780
:10020000092E000CAA0BBB0B480F591F6A1F7B1F3E
:10021000CD3239F470956095509541955F4F6F4F91
:100220007F4FCB01BA01DF91CF911F910F910895BC
:100230004F925F926F927F928F929F92AF92BF92F6
:10024000CF92DF92EF92FF921F93CF93DF93C0E4A0
:10025000D2E0FE01C12CD12C7601119180ED810FED
:100260008A30A8F4AAE0B0E0A70196010E94480DE8
:10027000C12E110FDD08EE08FF08C60ED71EE81EBE
:10028000F91E80E3C81AD108E108F108E6CFC701DA
:10029000B60124E630E040E050E00E94200D9B01D2
:1002A000AC0160EA76E881E090E00E94100D4B011D
:1002B0005C019E01899190ED980F9A30D0F38E32B7
:1002C00021F5E901219680E1482E87E2582E612C24
:1002D000712CA99180ED8A0F8A30B8F40A2E000C97
:1002E000BB0BD097A30192010E94530D860E971E5F
:1002F000A81EB91EC301B2012AE030E040E050E080
:100300000E94200D29013A01E4CFC701B60124E67D
:1003100030E040E050E00E94200D60E472E48FE0A5
:1003200090E00E94100D6B017C01C501B4016D5F6E
:100330007F4F8F4F9F4F26E030E040E050E00E941B
:10034000200DC701B601620F731F841F951FDF9137
:10035000CF911F91FF90EF90DF90CF90BF90AF9023
:100360009F908F907F906F905F904F900895AF9285
:10037000BF92CF92DF92EF92FF920F931F93CF9392
:10038000DF936C017B018B01040F151FEB015E01F4
:10039000AE18BF08C017D10759F06991D601ED9189
:1003A000FC910190F081E02DC6010995892B79F728
:1003B000C501DF91CF911F910F91FF90EF90DF90DA
:1003C000CF90BF90AF900895FC01538D448D252FA1
:1003D00030E0842F90E0821B930B541710F0CF96DF
:1003E000089501970895FC01918D828D981761F011
:1003F000A28DAE0FBF2FB11D5D968C91928D9F5F28
:100400009F73928F90E008958FEF9FEF0895FC0106
:10041000918D828D981731F0828DE80FF11D858DB9
:1004200090E008958FEF9FEF0895FC01918D228D4C
:10043000892F90E0805C9F4F821B91098F739927D1
:1004400008958DE491E00E94150221E0892B09F4C2
:1004500020E0822F089580E090E0892B29F00E940F
:10046000210281110C9400000895FC01A48DA80FB5
:10047000B92FB11DA35ABF4F2C91848D90E00196E6
:100480008F739927848FA689B7892C93A089B18906
:100490008C91837080648C93938D848D981306C0A7
:1004A0000288F389E02D80818F7D80830895EF920B
:1004B000FF920F931F93CF93DF93EC0181E0888F1E
:1004C0009B8D8C8D98131AC0E889F989808185FFEE
:1004D00015C09FB7F894EE89FF896083E889F98990
:1004E00080818370806480839FBF81E090E0DF9192
:1004F000CF911F910F91FF90EF900895F62E0B8DE5
:1005000010E00F5F1F4F0F731127E02E8C8D8E119F
:100510000CC00FB607FCFACFE889F989808185FF06
:10052000F5CFCE010E943502F1CFEB8DEC0FFD2F00
:10053000F11DE35AFF4FF0829FB7F8940B8FEA89C1
:10054000FB8980818062CFCFCF93DF93EC01888DD0
:100550008823B9F0AA89BB89E889F9898C9185FD3E
:1005600003C0808186FD0DC00FB607FCF7CF8C91CC
:1005700085FFF2CF808185FFEDCFCE010E9435024D
:10058000E9CFDF91CF91089590E0FC01E859FF4F4A
:100590002491FC01EC55FF4F3491FC01E057FF4FD3
:1005A000E491EE23C9F0222339F0233001F1A8F4BD
:1005B000213019F1223029F1F0E0EE0FFF1FE4584D
:1005C000FF4FA591B4918FB7F894EC91611126C0BB
:1005D00030953E233C938FBF08952730A9F02830F3
:1005E000C9F0243049F7809180008F7D03C080914D
:1005F00080008F7780938000DFCF84B58F7784BDB4
:10060000DBCF84B58F7DFBCF8091B0008F77809357
:10061000B000D2CF8091B0008F7DF9CF3E2BDACFE2
:10062000089590E080E00895FC0101900020E9F732
:100630003197AF01481B590BBC018DE592E00C943A
:10064000B7018F929F92AF92BF920F931F93CF9358
:10065000DF93CDB7DEB7A1970FB6F894DEBF0FBE1C
:10066000CDBF19A2423008F44AE08E010F5D1F4F42
:10067000842E912CB12CA12CA50194010E94200D57
:10068000E62FB901CA01EA30F4F4E05DD801EE9337
:100690008D01232B242B252B79F790E080E01097F8
:1006A00019F0CD010E941403A1960FB6F894DEBF95
:1006B0000FBECDBFDF91CF911F910F91BF90AF9033
:1006C0009F908F900895E95CE1CFCF93DF93EC0189
:1006D00060E08E810E94C40261E08E810E94C402AB
:1006E00060E08E810E94C4028BE891E00197F1F7EF
:1006F000DF91CF910895CF92DF92EF92FF920F9307
:100700001F93CF93DF936C017C0187E0E80EF11C0F
:10071000D0E0C0E0062F10E0B8010C2E02C07595A5
:1007200067950A94E2F76170F70181917F010E9459
:10073000C4022196C430D10579F7C601DF91CF916B
:100740001F910F91FF90EF90DF90CF900C94650375
:10075000CF92DF92EF92FF920F931F93CF93DF938D
:10076000EC01F62E642F8C810E94C4028D818F3F94
:1007700019F060E00E94C4020F2D10E08F8584FF05
:1007800025C06E0187E0C80ED11CF12CE12CB80108
:100790000E2C02C0759567950A94E2F76170F60118
:1007A00081916F010E94C402FFEFEF1AFF0A88E0F7
:1007B000E816F10461F7CE01DF91CF911F910F91FF
:1007C000FF90EF90DF90CF900C946503B80184E028
:1007D000759567958A95E1F7CE010E947B036F2D91
:1007E000CE01DF91CF911F910F91FF90EF90DF909D
:1007F000CF900C947B0340E0682F8DE592E00C9441
:10080000A803CF93DF93823029F490916C02986013
:1008100090936C02809370021092710280E4809336
:10082000720280E18093730280E58093740280916C
:1008300061020E948700809162028F3F11F00E9446
:100840008700809163020E948700CDE5D2E09E017F
:100850002D55324080916C0284FD0AC084E090E006
:100860002196281739073CF48E810E948700EFCF2C
:1008700088E090E0F5CF8BE39DE00197F1F760E031
:10088000809161020E94C40260E0809163020E9434
:10089000C402809162028F3F19F060E00E94C4029E
:1008A00080916C0284FD39C063E08DE592E00E9486
:1008B0007B03CBE4D6E4CE010197F1F763E08DE54D
:1008C00092E00E947B032197F1F763E08DE592E0CF
:1008D0000E947B0383E592E00197F1F762E08DE5EA
:1008E00092E00E947B0380916C0280620E94FB0375
:1008F00084E080936D028CE00E94FB0381E00E9403
:10090000FB038BE39FE10197F1F782E080936E0296
:1009100086E0DF91CF910C94FB0380620E94FB0381
:100920008BE496E40197F1F780916C0280620E945B
:10093000FB0383E592E00197F1F780916C028062FE
:100940000E94FB03D0CF41E00E94A80381E090E029
:1009500008954F925F926F927F928F929F92AF9283
:10096000BF92CF92DF92EF92FF920F931F93CF939C
:100970006B017C01742EAC019B010E940B0D88233E
:1009800099F08EE191E0CF911F910F91FF90EF9040
:10099000DF90CF90BF90AF909F908F907F906F909F
:1009A0005F904F900C94140346015701E894B7F8F8
:1009B0002FEF3FEF4FE75FE7C501B4010E940B0D3A
:1009C00081110DC02FEF3FEF4FE75FE7C501B40185
:1009D0000E94410B18161CF482E291E0D4CF2FEF55
:1009E0003FEF4FE75FE4C701B6010E94990C18166C
:1009F0001CF486E291E0C7CF2FEF3FEF4FE75FECAB
:100A0000C701B6010E94410B87FDF3CF20E030E023
:100A1000A901C701B6010E94410B10E000E087FF69
:100A20000CC041E06DE28DE592E00E94A803F7FA68
:100A3000F094F7F8F09401E010E0C0E060E070E0BE
:100A400080E09FE37C1641F020E030E040E251E49A
:100A50000E94460BCF5FF6CFA70196010E94D50AF0
:100A60004B015C010E94B80B2B013C014AE00E9443
:100A70002103080F191FCC23C9F1C301B2010E9441
:100A8000E70B9B01AC01C501B4010E94D40A4B01E4
:100A90005C0141E06EE28DE592E00E94A8030F5FE9
:100AA0001F4FC15018F120E030E040E251E4C50191
:100AB000B4010E949E0C2B013C010E94B80B4B011B
:100AC000B12CA12C4AE0C501B4010E942103080FFA
:100AD000191FC501B4010E94E70B9B01AC01C301C2
:100AE000B2010E94D40A4B015C01DBCFC801CF9157
:100AF0001F910F91FF90EF90DF90CF90BF90AF903C
:100B00009F908F907F906F905F904F9008951F926D
:100B10000F920FB60F9211242F933F934F935F9331
:100B20006F937F938F939F93AF93BF93EF93FF93B5
:100B30008DE491E00E943502FF91EF91BF91AF915A
:100B40009F918F917F916F915F914F913F912F91E5
:100B50000F900FBE0F901F9018951F920F920FB617
:100B60000F9211242F938F939F93EF93FF93E09114
:100B70005D01F0915E018081E0916301F09164017B
:100B800082FD1BC09081809166018F5F8F732091E1
:100B90006701821741F0E0916601F0E0E35BFE4FF0
:100BA000958F80936601FF91EF919F918F912F9187
:100BB0000F900FBE0F901F9018958081F4CF1F9259
:100BC0000F920FB60F9211242F933F938F939F9301
:100BD000AF93BF938091490190914A01A0914B013D
:100BE000B0914C013091480123E0230F2D3758F587
:100BF0000196A11DB11D2093480180934901909356
:100C00004A01A0934B01B0934C0180914401909113
:100C10004501A0914601B09147010196A11DB11D6A
:100C20008093440190934501A0934601B0934701FE
:100C3000BF91AF919F918F913F912F910F900FBED8
:100C40000F901F90189526E8230F0296A11DB11D45
:100C5000D2CFEDE4F1E01382128288EE93E0A0E0BF
:100C6000B0E084839583A683B78384E091E0918389
:100C7000808385EC90E09587848784EC90E097876B
:100C8000868780EC90E0918B808B81EC90E0938B59
:100C9000828B82EC90E0958B848B86EC90E0978B36
:100CA000868B118E128E138E148EEDE5F2E0138278
:100CB000128286E191E09183808388E084838FEFC4
:100CC000858389E086838AE087838BE080878CE058
:100CD00081878DE08287138614861586168617868F
:100CE00081E00E940104EAEEF1E04FEF5FEFBA010C
:100CF0004083518362837383108611861286138624
:100D00008FEF99ECAAE9BBE3808B918BA28BB38B1D
:100D1000808F918FA28FB38F80A391A3A2A3B3A33F
:100D200080A791A7A2A7B3A780AB91ABA2ABB3ABAF
:100D300040AF51AF62AF73AF8FEF90E090932B0253
:100D400080932A0240932E0250932F026093300228
:100D50007093310240933602509337026093380209
:100D60007093390210923E0210923F0282E080930B
:100D70004F021092500210925102109252021092A1
:100D80005302109254021092550210925602109281
:100D900058021092570210925A0210925902109261
:100DA00040020895789484B5826084BD84B58160E2
:100DB00084BD85B5826085BD85B5816085BD809126
:100DC0006E00816080936E0010928100809181009E
:100DD0008260809381008091810081608093810096
:100DE000809180008160809380008091B100846058
:100DF0008093B1008091B00081608093B0008091B9
:100E00007A00846080937A0080917A008260809377
:100E10007A0080917A00816080937A0080917A00D4
:100E2000806880937A001092C100E0915D01F0919A
:100E30005E0182E08083E0915901F0915A011082B5
:100E4000E0915B01F0915C018FEC80831092650171
:100E5000E0916101F091620186E08083E0915F01A1
:100E6000F0916001808180618083E0915F01F09169
:100E70006001808188608083E0915F01F091600172
:100E8000808180688083E0915F01F09160018081C2
:100E90008F7D808382E00E94010490E0C92E90E063
:100EA000D92E02E0FF24F3948DE491E00E94150214
:100EB000181619060CF002C18DE491E00E94F301AE
:100EC000182F8091530290915402A0915502B09135
:100ED00056020196A11DB11D8093530290935402B6
:100EE000A0935502B0935602143209F4AAC2E091BD
:100EF000510215324CF41A3019F01D3009F0AEC20F
:100F0000EF3068F0B12CCBC01A32D1F31C3209F0AB
:100F1000A5C280913E02812780933E02F1CF90913D
:100F20005002F0E0E05CFD4F1082B0903F02BB2029
:100F300009F444C120914002822F022E000C990B2B
:100F40003FEB320F363008F0C5C0C7978295807FDF
:100F500090914102292F092E000C330B4FEB490FC2
:100F6000463008F0BFC027533109820F90913E02EE
:100F700089131AC1B0905202BB2021F2809157020E
:100F80009091580201969093580280935702809155
:100F9000320290913302A0913402B09135028093D5
:100FA0002E0290932F02A0933002B09331028091D1
:100FB0003A0290913B02A0913C02B0913D02809395
:100FC000360290933702A0933802B0933902809191
:100FD0004F02882309F48FC0813009F060C08091EE
:100FE000EE019091EF01A091F001B091F101809399
:100FF000EA019093EB01A093EC01B093ED01809195
:10100000F6019091F701A091F801B091F901809358
:10101000F2019093F301A093F401B093F501809154
:10102000FE019091FF01A0910002B0910102809316
:10103000FA019093FB01A093FC01B093FD01809114
:10104000060290910702A0910802B09109028093D4
:10105000020290930302A0930402B09305028091D0
:10106000160290911702A0911802B0911902809374
:10107000120290931302A0931402B0931502809170
:101080001E0290911F02A0912002B0912102809334
:101090001A0290931B02A0931C02B0931D02809130
:1010A00050028F5F809350021092510281E01A32F9
:1010B00009F080E080933F02B110E4C1C114D10473
:1010C00009F4F2CE0E942102882309F4EDCE0E9499
:1010D0000000EACE2156263018F48755910936CF04
:1010E000C09734CF9156963018F4275531093DCF2B
:1010F000205331093ACF80910E0290910F02A091B6
:101100001002B091110280930A0290930B02A093F7
:101110000C02B0930D028091EE019091EF01A0912D
:10112000F001B091F1018093EA019093EB01A0935B
:10113000EC01B093ED018091FE019091FF01A0912F
:101140000002B09101028093FA019093FB01A093F9
:10115000FC01B093FD018091060290910702A091DD
:101160000802B09109028093020290930302A093B7
:101170000402B093050280912C0290912D0290936D
:101180002B0280932A028091260290912702A0913F
:101190002802B09129028093220290932302A09307
:1011A0002402B09325027BCF8091590290915A027C
:1011B000019690935A0280935902A4CE91111AC0BD
:1011C000A0E4B2E0EAE2F1E09D01E90189919E012B
:1011D000882309F4BDC191918917B9F3E0E3F1E0E7
:1011E0008D91882309F4B7C191918917C9F30093B0
:1011F0004F0255CFE0914F02E23009F483CE809147
:101200004002882309F47ECED0E2ED9FF001112444
:10121000E92B3197E932F10508F041CFEE5EF64F48
:101220000C94420D58097C099A09B509C009FA09BC
:10123000010A0B0A160A4F084F084F084F084F08BB
:101240004F084F084F084F084F084F084F084F08E6
:101250004F084F084F084F084F084F084F084F08D6
:101260004F084F08580976097C099A09B509C00941
:10127000DB09E6093B09E0E4F2E020E030E0A90107
:10128000A19080ED8A0D8A3008F0ABC0AAE0B0E0F2
:101290000E94480D2A2DAA0C330B440B550B260F28
:1012A000371F481F591F2053310941095109E8CF01
:1012B0000E94A6006093EE017093EF018093F0010D
:1012C0009093F1012FB7F8948091490190914A01D0
:1012D000A0914B01B0914C012FBF809332029093AB
:1012E0003302A0933402B0933502D9CE91E0813419
:1012F00009F484C090E082C00E9418016093FE014E
:101300007093FF0180930002909301022FB7F8942D
:101310008091490190914A01A0914B01B0914C01FB
:101320002FBF80933A0290933B02A0933C02B0936C
:101330003D02B5CE833509F0E5CD8091FE01909157
:10134000FF01A0910002B0910102B095A095909587
:1013500081959F4FAF4FBF4F8093FE019093FF0148
:10136000A0930002B09301029ACE0E9418016093EC
:1013700006027093070280930802909309028FCEB1
:10138000873509F0BFCD8091060290910702A091A8
:101390000802B0910902B095A095909581959F4F54
:1013A000AF4FBF4F8093060290930702A0930802AD
:1013B000B093090274CE0E94A60060931602709347
:1013C0001702809318029093190269CE0E94A6001A
:1013D00060931E0270931F0280932002909321025B
:1013E0005ECE2093F6013093F7014093F8015093BD
:1013F000F90155CE91E081330CF47CCF90935202E9
:101400004ECE80E492E00E94AE0A992790932D027E
:1014100080932C0244CE0E94A60060932602709313
:101420002702809328029093290239CE0E94A600B9
:1014300060930E0270930F0280931002909311023A
:101440002ECE109251021092500210923E02009342
:101450004F0210923F021092520230CEEE3040F412
:1014600081E08E0F80935102F0E0E05CFD4F10832D
:1014700080913F02811122CE80913E021827109365
:101480003E021CCE6091FA017091FB018091FC013B
:101490009091FD018090020290900302A0900402BE
:1014A000B09005026F3F29EC72072AE982072BE30F
:1014B000920709F442C00E94E90B20E034E244E7BD
:1014C00059E40E94460B2B013C01C501B4010E9466
:1014D000E90B20E034E244E759E40E94460B4B015B
:1014E0005C01E1E0809170028111E0E0E195F0E0C3
:1014F000E35AFD4F848980680E94FB0386E391E0F4
:101500000E94140345E0C301B2010E94A904E091C6
:101510007002E230D8F4E150F0E0E35AFD4F8489E4
:1015200080680E94FB038CE391E00E94140345E075
:10153000C501B4010E94A904C1CD412C512C8AE7F8
:10154000682E84E4782E53014201CBCFE1E0E4CF52
:10155000F0924F02A4CD10924F02A1CDFC0188273A
:101560009927E89421912032E9F3293010F02E30A8
:10157000C8F32B3241F02D3239F4689404C00E9434
:10158000CC0A820F911D219120532A30C0F31EF402
:10159000909581959F4F08957AE0979F902D879F12
:1015A000802D910D112408955058BB27AA270E9421
:1015B000EC0A0C945F0C0E94510C38F00E94580CFD
:1015C00020F039F49F3F19F426F40C944E0C0EF4DD
:1015D000E095E7FB0C94480CE92F0E94700C58F33F
:1015E000BA17620773078407950720F079F4A6F508
:1015F0000C94920C0EF4E0950B2EBA2FA02D0B013B
:10160000B90190010C01CA01A0011124FF27591B47
:1016100099F0593F50F4503E68F11A16F040A22F4D
:10162000232F342F4427585FF3CF469537952795BE
:10163000A795F0405395C9F77EF41F16BA0B620BBD
:10164000730B840BBAF09150A1F0FF0FBB1F661F04
:10165000771F881FC2F70EC0BA0F621F731F841F47
:1016600048F4879577956795B795F7959E3F08F06D
:10167000B0CF9395880F08F09927EE0F979587952F
:1016800008950E94240C08F481E008950E945A0BEA
:101690000C945F0C0E94580C58F00E94510C40F0C2
:1016A00029F45F3F29F00C94480C51110C94930CD1
:1016B0000C944E0C0E94700C68F39923B1F35523DF
:1016C00091F3951B550BBB27AA2762177307840755
:1016D00038F09F5F5F4F220F331F441FAA1FA9F3EB
:1016E00035D00E2E3AF0E0E832D091505040E695D9
:1016F000001CCAF72BD0FE2F29D0660F771F881F3A
:10170000BB1F261737074807AB07B0E809F0BB0B2C
:10171000802DBF01FF2793585F4F3AF09E3F510540
:1017200078F00C94480C0C94930C5F3FE4F3983ED3
:10173000D4F3869577956795B795F7959F5FC9F729
:10174000880F911D9695879597F90895E1E0660FAA
:10175000771F881FBB1F621773078407BA0720F023
:10176000621B730B840BBA0BEE1F88F7E09508958C
:101770000E94780C88F09F5798F0B92F9927B7519D
:10178000B0F0E1F0660F771F881F991F1AF0BA9525
:10179000C9F714C0B13091F00E94920CB1E00895E5
:1017A0000C94920C672F782F8827B85F39F0B93FD7
:1017B000CCF3869577956795B395D9F73EF49095D8
:1017C0008095709561957F4F8F4F9F4F0895E89456
:1017D00009C097FB3EF490958095709561957F4F79
:1017E0008F4F9F4F9923A9F0F92F96E9BB27939527
:1017F000F695879577956795B795F111F8CFFAF437
:10180000BB0F11F460FF1BC06F5F7F4F8F4F9F4F67
:1018100016C0882311F096E911C0772321F09EE8C5
:10182000872F762F05C0662371F096E8862F70E02B
:1018300060E02AF09A95660F771F881FDAF7880F05
:101840009695879597F90895990F0008550FAA0B5B
:10185000E0E8FEEF16161706E807F907C0F01216C3
:101860001306E407F50798F0621B730B840B950BC6
:1018700039F40A2661F0232B242B252B21F408951B
:101880000A2609F4A140A6958FEF811D811D0895B8
:1018900097F99F6780E870E060E008959FEF80EC23
:1018A000089500240A9416161706180609060895C6
:1018B00000240A9412161306140605060895092E2C
:1018C0000394000C11F4882352F0BB0F40F4BF2B9B
:1018D00011F460FF04C06F5F7F4F8F4F9F4F0895DB
:1018E00057FD9058440F551F59F05F3F71F04795D1
:1018F000880F97FB991F61F09F3F79F087950895B6
:10190000121613061406551FF2CF4695F1DF08C0D4
:10191000161617061806991FF1CF869571056105F1
:1019200008940895E894BB2766277727CB0197F999
:1019300008950E94240C08F48FEF08950E94B10CC2
:101940000C945F0C0E94510C38F00E94580C20F04F
:10195000952311F00C94480C0C944E0C11240C940B
:10196000930C0E94700C70F3959FC1F3950F50E09B
:10197000551F629FF001729FBB27F00DB11D639F41
:10198000AA27F00DB11DAA1F649F6627B00DA11DE7
:10199000661F829F2227B00DA11D621F739FB00D8D
:1019A000A11D621F839FA00D611D221F749F3327FD
:1019B000A00D611D231F849F600D211D822F762F96
:1019C0006A2F11249F5750409AF0F1F088234AF073
:1019D000EE0FFF1FBB1F661F771F881F91505040DF
:1019E000A9F79E3F510580F00C94480C0C94930C81
:1019F0005F3FE4F3983ED4F3869577956795B79566
:101A0000F795E7959F5FC1F7FE2B880F911D96957F
:101A1000879597F908950E94240C880B990B0895D7
:101A2000DB018F939F930E94480DBF91AF91A29FBE
:101A3000800D911DA39F900DB29F900D11240895CC
:101A4000A1E21A2EAA1BBB1BFD010DC0AA1FBB1FC2
:101A5000EE1FFF1FA217B307E407F50720F0A21B34
:101A6000B30BE40BF50B661F771F881F991F1A94A1
:101A700069F760957095809590959B01AC01BD01CB
:101A8000CF010895EE0FFF1F0590F491E02D09940A
:101A90000E945B0DA59F900DB49F900DA49F800D9B
:101AA000911D11240895B7FF0C94480D0E94480D14
:101AB000821B930B0895A29FB001B39FC001A39F07
:101AC000700D811D1124911DB29F700D811D112477
:081AD000911D0895F894FFCF69
:101AD800000000005702B701E401A4021502F30157
:101AE800070200000000A304B701110310036E6190
:101AF8006E00696E66006F7666004750524D43006F
:101B08004750474741004C61743A20004C6F6E675C
:041B18003A2000006F
:00000001FF
